S01700004763634170706C69636174696F6E312E737265635B
S11300000C943F000C945C000C9440020C945C0033
S11300100C945C000C945C000C945C000C945C00EC
S11300200C945C000C945C000C945C000C945C00DC
S11300300C945C000C945A010C945C000C945C00CD
S11300400C945C000C9450010C945C000C945C00C7
S11300500C945C000C945C000C945C000C945C00AC
S11300600C945C000C945C009308A608B908CD08B5
S1130070E108F50809091D0931094509590911243F
S11300801FBECFEFD8E0DEBFCDBF13E0A0E0B1E0EC
S1130090E2E9FAE102C005900D92AA39B107D9F755
S11300A023E0AAE9B3E001C01D92AC3BB207E1F73B
S11300B00E94B1090C94470D0C940000579A389A89
S11300C0399A3A9A209A219A08955F9888230CF4D1
S11300D05F9A409886FD409A419885FD419A4298DE
S11300E084FD429A289A8AEB8A95F1F700C02898F1
S11300F08AEB8A95F1F700C00895CF93C82F299A07
S113010028980E9465008C2F8295807F0E9465004C
S1130110CF9108950F931F93CF93DF9300D0CDB762
S1130120DEB78C011A821982E981FA81E80FF91F7E
S113013080818823C9F0E981FA81E00FF11F808171
S11301400E947D0089819A8101969A8389838FE335
S113015091E00197F1F700C00000E981FA81E00F16
S1130160F11F80818111E7CF0F900F90DF91CF9124
S11301701F910F910895CF93C82F299828980E9412
S113018065008C2F8295807F0E946500CF91089531
S11301902FEF80E792E0215080409040E1F700C0CB
S11301A000002998289880E30E9465008FE39CE969
S11301B00197F1F700C0000080E30E94650087E525
S11301C092E00197F1F700C0000080E30E9465000F
S11301D087E592E00197F1F700C0000088E20E94F1
S11301E0650090EF9A95F1F788E20E94BB0020EF3A
S11301F02A95F1F788E00E94BB0080EF8A95F1F719
S113020081E00E94BB008FE79EE30197F1F700C0F5
S1130210000086E00E94BB0090EF9A95F1F78CE015
S11302200E94BB0020EF2A95F1F70895CF93DF9346
S1130230EC01862F80680E94BB00CE010E948A00D8
S1130240DF91CF910895682F82E091E00E9416011A
S1130250089580E00E94230180E40E94230180E14C
S11302600E94230180E50E9423010895CF93C82FA3
S1130270862F8068840F0E94BB008C2F0E947D0013
S1130280CF910895E9E6F0E0808184608083E99A63
S11302900895E9E6F0E080818B7F8083E9980895F2
S11302A01F920F920FB60F9211240F900FBE0F9052
S11302B01F9018951F920F920FB60F92112410924F
S11302C0A003109281000F900FBE0F901F901895FD
S11302D01092800010928100109285001092840088
S11302E081E080936F000E9442010895882329F0E1
S11302F081E080939F035A9A089510929F035A981D
S11303000895882329F081E080939E035C9A0895E0
S113031010929E035C98089587B1886387B9459AC3
S1130320449A439A08958AB184618AB90895449895
S1130330459887EC90E00197F1F700C00000459ADA
S113034087EC90E00197F1F700C000000895449A0B
S1130350459887EC90E00197F1F700C00000459ABA
S113036087EC90E00197F1F700C0000008958EBD7E
S11303700DB407FEFDCF6EBD0DB407FEFDCF2A9A66
S11303802A9808958CE284B92A9880E58CBD81E08E
S11303908DBD8FEC97E00197F1F700C00000089540
S11303A0CF93C82F682F81E10E94B7016C2F82E19F
S11303B00E94B701CF910895CF9343988FE19EE4B3
S11303C00197F1F700C00000CFEF0E94A701C150D0
S11303D0E1F7C7E10E949701C150E1F710929D0334
S11303E010929A03CF910895CF93439880919A03E2
S11303F0882341F0C0E00E94A701CF5F80919A0357
S1130400C817C8F310929D0310929A03CF910895D0
S1130410CF9343988FE19EE40197F1F700C0000069
S1130420C0919A03C53028F40E949701CF5FC5306C
S1130430D9F785E080939A0381E080939D03CF915F
S113044008958230A9F0843019F08130C1F408C0D5
S1130450269A2E9A2F985D9884E08093000108953F
S11304602E98279A2F9A5D9881E080930001089531
S11304702E982F98559A5D9A82E0809300010895F2
S11304801F920F920FB60F9211242F933F934F9305
S11304905F936F937F938F939F93AF93BF93EF93E8
S11304A0FF93CF93DF9300D0CDB7DEB781E00E94F6
S11304B021022FEF80E792E0215080409040E1F745
S11304C000C0000084E00E9421028091A0038823E0
S11304D041F0E4E8F0E0808191819A83898311827C
S11304E010828091A003823061F128F4882349F0BE
S11304F08130A1F0D1C08330B9F1843009F447C010
S1130500CBC0109285001092840082E08093810019
S113051081E08093A0031092AE03BEC089819A81CA
S11305208D31954228F489819A818433914228F44B
S11305301092A00310928100AFC082E08093A003C8
S1130540ABC089819A818938934128F489819A8141
S1130550803A9F4028F41092A003109281009CC01E
S113056083E08093A00398C089819A818D3B924057
S113057028F489819A818039914028F4109281006D
S11305801092A00389C084E08093A00385C0898170
S11305909A818930974028F489819A8180399140E1
S11305A028F4109281001092A00376C089819A8168
S11305B0893E934040F12091AE034091A5035091B0
S11305C0A6036091A7037091A8038FE190E0821BBA
S11305D0910921E030E0F90102C0EE0FFF1F8A9576
S11305E0E2F7CF01092E000CAA0BBB0B842B952B31
S11305F0A62BB72B8093A5039093A603A093A703E0
S1130600B093A80328C02091AE034091A503509154
S1130610A6036091A7037091A8038FE190E0821B69
S1130620910921E030E002C0220F331F8A95E2F7DE
S1130630C90180959095092E000CAA0BBB0B84234D
S11306409523A623B7238093A5039093A603A09391
S1130650A703B093A8038091AE038F5F8093AE038A
S11306608091AE038032A8F081E08093A1030E94C0
S1130670490181E00E942102FFEF20E782E0F1506E
S113068020408040E1F700C0000084E00E94210285
S113069003C083E08093A0030F900F90DF91CF916C
S11306A0FF91EF91BF91AF919F918F917F916F9146
S11306B05F914F913F912F910F900FBE0F901F901C
S11306C01895269A279A559A84E00E9421022FEFC2
S11306D089E698E1215080409040E1F700C0000095
S11306E081E00E9421022FEF89E698E121508040A9
S11306F09040E1F700C0000008958091A103882391
S113070009F441C01092A1031092A0031092810039
S11307108091A5039091A603A091A703B091A8038B
S1130720CD01AA27BB279093A3038093A2038091B2
S1130730A5039091A603A091A703B091A803892FC4
S11307409A2FAB2FBB278093A4038091A50390918C
S1130750A603A091A703B091A8038093AF030E94BE
S1130760420182E00E9421022FEF80E792E02150B3
S113077080409040E1F700C0000081E00E94210227
S11307808091AF03089580E008958AB181648AB9A5
S113079008950E94290160E087E191E00E9416011A
S11307A060E488E291E00E94160160E189E391E04F
S11307B00E94160160E58AE491E00E941601089502
S11307C060E08BE591E00E94160160E48CE691E024
S11307D00E94160160E18DE791E00E94160160E538
S11307E08EE891E00E94160108955E9A0E94C80066
S11307F00E94DC010E94E0032FEF8DE399E4215075
S113080080409040E1F700C000000E94C9030895B1
S113081081E0809301010E94760181E00E948101C0
S11308200E94080280919B030E94D00181E00E94F3
S113083021020E94F50308950E94C5030E946103EA
S113084081E00E9421020E948C010E9468010E94A2
S1130850BF090E9493010E94C2010E945E000E948F
S1130860F503789408955E9808951092010180E04C
S11308700E94760180E00E9481010E94F40180E0E0
S11308800E94D00184E00E9421020E943304089552
S1130890EF92FF920F931F93CF93DF93CDB7DEB701
S11308A061970FB6F894DEBF0FBECDBF1982809159
S11308B0A103882309F4ABC31092A1031092A003EF
S11308C0109281008091A5039091A603A091A703A3
S11308D0B091A803CD01AA27BB279093A3038093CB
S11308E0A2038091A5039091A603A091A703B091C0
S11308F0A803892F9A2FAB2FBB278093A403809141
S1130900A5039091A603A091A703B091A803809397
S1130910AF038FE991E00E94DA098091A2039091DC
S1130920A3039F938F9389EA91E09F938F9309EA9E
S113093013E01F930F930E94470AC8010E94DA092B
S113094085EB91E00E94DA098091A4031F928F93B2
S11309500F2EFEEAEF2EF1E0FF2EF02DFF92EF9224
S11309601F930F930E94470AC8010E94DA0983EB80
S113097091E00E94DA098091AF031F928F93FF9256
S1130980EF921F930F930E94470AC8010E94DA094D
S1130990809101010FB6F894DEBF0FBECDBF811167
S11309A006C08091AF039091B50398132EC3809134
S11309B0AF039091B80398135FC080919B0382307A
S11309C0A0F480919B0380939B0384E00E94210206
S11309D03FEF80E792E0315080409040E1F700C063
S11309E0000081E00E94210214C080919B03825088
S11309F080939B0382E00E9421022FEF30E782E084
S1130A00215030408040E1F700C0000081E00E94A6
S1130A10210260919B0381E10E94B70160919B03D5
S1130A2082E10E94B70180E00E94230180919B0330
S1130A3024E6829FC001112468EC70E00E94E90959
S1130A40698389811F928F938FEB91E09F938F939A
S1130A501F9280E18F938E010E5F1F4F1F930F93A0
S1130A600E94170A60E0C8010E9416010FB6F894AC
S1130A70DEBF0FBECDBFC9C28091AF039091B70353
S1130A8098135FC080919B03893CA0F080919B03E5
S1130A9080939B0384E00E9421029FEF20E732E0D1
S1130AA0915020403040E1F700C0000081E00E94F6
S1130AB0210214C080919B038E5F80939B0382E08C
S1130AC00E9421028FEF90E722E081509040204065
S1130AD0E1F700C0000081E00E94210260919B03C5
S1130AE081E10E94B70160919B0382E10E94B701FA
S1130AF080E00E94230180919B0334E6839FC00120
S1130B00112468EC70E00E94E909698389811F92CD
S1130B108F938FEB91E09F938F931F9280E18F933C
S1130B208E010E5F1F4F1F930F930E94170A60E000
S1130B30C8010E9416010FB6F894DEBF0FBECDBFE8
S1130B4064C28091AF039091B00398135FC0809109
S1130B509B03893CA0F080919B0380939B0384E0DA
S1130B600E9421029FEF20E732E091502040304064
S1130B70E1F700C0000081E00E94210214C08091CE
S1130B809B03805F80939B0382E00E9421028FEF8E
S1130B9090E722E0815090402040E1F700C000003F
S1130BA081E00E94210260919B0381E10E94B701D0
S1130BB060919B0382E10E94B70180E00E942301BF
S1130BC080919B0334E6839FC001112468EC70E09C
S1130BD00E94E909698389811F928F938FEB91E0C9
S1130BE09F938F931F9280E18F938E010E5F1F4F0F
S1130BF01F930F930E94170A60E0C8010E94160118
S1130C000FB6F894DEBF0FBECDBFFFC18091AF0316
S1130C109091BB0398135FC080919B038031A0F433
S1130C2080919B0380939B0384E00E9421029FEFA9
S1130C3020E732E0915020403040E1F700C000004E
S1130C4081E00E94210214C080919B038051809313
S1130C509B0382E00E9421028FEF90E722E0815003
S1130C6090402040E1F700C0000081E00E94210292
S1130C7060919B0381E10E94B70160919B0382E133
S1130C800E94B70180E00E94230180919B0334E617
S1130C90839FC001112468EC70E00E94E909698314
S1130CA089811F928F938FEB91E09F938F931F9273
S1130CB080E18F938E010E5F1F4F1F930F930E944D
S1130CC0170A60E0C8010E9416010FB6F894DEBF4F
S1130CD00FBECDBF9AC18091AF039091B903981311
S1130CE056C080919A038530D0F40E949701809178
S1130CF09A038F5F80939A0381E080939D0382E03F
S1130D000E9421029FEF20E732E0915020403040C2
S1130D10E1F700C0000081E00E9421020FC084E0DE
S1130D200E9421028FEF90E722E081509040204002
S1130D30E1F700C0000081E00E94210280E40E94EB
S1130D40230180919A0334E6839FC001112465E056
S1130D5070E00E94E909698389811F928F938FEC67
S1130D6091E09F938F931F9280E18F938E010E5F8A
S1130D701F4F1F930F930E94170A60E4C8010E943B
S1130D8016010FB6F894DEBF0FBECDBF3EC18091F1
S1130D90AF039091BA03981356C080919A038823A5
S1130DA0D1F081E080939D030E94A70180919A0372
S1130DB0815080939A0382E00E9421029FEF20E7F2
S1130DC032E0915020403040E1F700C0000081E063
S1130DD00E9421020FC084E00E9421028FEF90E75D
S1130DE022E0815090402040E1F700C0000081E003
S1130DF00E94210280E40E94230180919A0334E638
S1130E00839FC001112465E070E00E94E9096983B1
S1130E1089811F928F938FEC91E09F938F931F9200
S1130E2080E18F938E010E5F1F4F1F930F930E94DB
S1130E30170A60E4C8010E9416010FB6F894DEBFD9
S1130E400FBECDBFE2C08091AF039091B103981360
S1130E5025C080919F03882349F080E00E94760199
S1130E6060E18DED91E00E94160108C081E00E94CE
S1130E70760160E18EEE91E00E94160182E00E940C
S1130E8021029FEF20E732E0915020403040E1F70B
S1130E9000C0000081E00E942102B7C08091AF032E
S1130EA09091B203981325C080919E03882349F042
S1130EB080E00E94810160E58FEF91E00E941601BD
S1130EC008C081E00E94810160E580E192E00E9417
S1130ED0160182E00E9421028FEF90E722E0815008
S1130EE090402040E1F700C0000081E00E94210210
S1130EF08CC08091AF039091B303981323C0809169
S1130F009D03882341F00E94F40160E481E292E0B1
S1130F100E94160107C00E94080260E482E392E086
S1130F200E94160182E00E9421023FEF80E792E0D6
S1130F30315080409040E1F700C0000081E00E9401
S1130F40210263C08091AF039091B50398130AC046
S1130F5080910101882319F00E94350456C00E9433
S1130F60080453C08091AF039091B40398134DC00B
S1130F7080919C03882359F080E00E94D001109254
S1130F809C0360E083E492E00E9416012FC08091EC
S1130F909B030E94D00181E080939C0380E00E9427
S1130FA0230180919B0324E6829FC001112468ECF5
S1130FB070E00E94E909698389811F928F938FEB06
S1130FC091E09F938F931F9280E18F938E010E5F28
S1130FD01F4F1F930F930E94170A60E0C8010E94DD
S1130FE016010FB6F894DEBF0FBECDBF82E00E949B
S1130FF021029FEF20E732E0915020403040E1F79A
S113100000C0000081E00E9421020E94420161961A
S11310100FB6F894DEBF0FBECDBFDF91CF911F9105
S11310200F91FF90EF900895EF92FF921F93CF934B
S1131030DF931F92CDB7DEB719820F2EF0EBEF2EA0
S1131040F3E0FF2EF02D10E0CE0101960E94FA0C81
S1131050F70181937F011F5F19831C30A9F70F905B
S1131060DF91CF911F91FF90EF900895489904C0AC
S1131070489BFECF81E0089580E008959F92AF924F
S1131080BF92CF92DF92EF92FF920F931F93CF9371
S1131090DF930E94290160E084E592E00E9416013A
S11310A060E485E692E00E94160160E186E792E042
S11310B00E9416010E946801C0E00F2EFAE09F2EE4
S11310C0F02D0F2EF9E0AF2EF02D6894BB24B3F869
S11310D00F2EF7E0CF2EF02D0F2EF6E0DF2EF02DA1
S11310E00F2EF5E0EF2EF02D6894FF24F2F803E0C4
S11310F012E0D1E00E943608882329F00E94810979
S11311000E94C903F2C00E947D038823E1F30E9478
S11311107D034C2F50E04B30510560F7FA01EC5C35
S1131120FF4F0C94FD09882329F3682F81E090E098
S11311300E94020D60E087E892E00E94160160E4DC
S113114088E992E00E941601CD2FD4CF882391F232
S1131150682F82E090E00E94020D60E089EA92E04C
S11311600E94160160E48AEB92E00E941601C12FEE
S1131170C1CF882309F4BECF682F83E090E00E949A
S1131180020D60E08BEC92E00E94160160E48AEBB1
S113119092E00E941601C02FADCF882309F4AACF94
S11311A0682F84E090E00E94020D60E08CED92E0F4
S11311B00E94160160E48AEB92E00E941601CF2D92
S11311C099CF882309F496CF682F85E090E00E9498
S11311D0020D60E08DEE92E00E94160160E48EEF55
S11311E092E00E941601CE2D85CF882309F482CF88
S11311F0682F87E090E00E94020D60E08DEE92E09F
S11312000E94160160E48FE093E00E941601CD2D48
S113121071CF882309F46ECF682F88E090E00E9494
S1131220020D60E089EA92E00E94160160E48EEF0C
S113123092E00E941601CC2D5DCF882309F45ACF89
S1131240682F89E090E00E94020D60E089EA92E054
S11312500E94160160E48FE093E00E941601CB2DFA
S113126049CF882309F446CF682F8AE090E00E9492
S1131270020D60E08DEE92E00E94160160E480E2CF
S113128093E00E941601CA2D35CF882309F432CF8A
S1131290682F80E090E00E94020D60E08DEE92E005
S11312A00E94160160E481E393E00E941601C92DB7
S11312B021CF882309F41ECF682F8BE090E00E9491
S11312C0020D0E94290160E484E493E00E94160167
S11312D02FEF83ED90E3215080409040E1F700C070
S11312E000000E9414080E94C903DF91CF911F914E
S11312F00F91FF90EF90DF90CF90BF90AF909F90B1
S11313000895CF930E94290160E085E593E00E944F
S1131310160160E486E693E00E94160160E187E727
S113132093E00E94160160E588E893E00E941601AC
S1131330C5E343E060E58C2F0E9436012FEF89E678
S113134098E1215080409040E1F700C000000E94E5
S1131350360881110E943E08C150C03351F7CF9125
S113136008950E941C0453980E9414080E94480483
S11313700E9436088823D1F30E948109F7CF519A3D
S113138050981092C50083E38093C400E1ECF0E030
S113139080818860808380818061808386E08093FF
S11313A0C2000895E0ECF0E0908195FFFDCF8093BA
S11313B0C6000895CF93DF93EC018881882331F030
S11313C021960E94D20989918111FBCFDF91CF919F
S11313D0089597FB072E16F4009407D077FD09D0E3
S11313E00E94030A07FC05D03EF4909581959F4F17
S11313F00895709561957F4F0895EE0FFF1F059036
S1131400F491E02D0994AA1BBB1B51E107C0AA1F4C
S1131410BB1FA617B70710F0A61BB70B881F991F91
S11314205A95A9F780959095BC01CD010895AEE039
S1131430B0E0EDE1FAE00C941E0D0D891E898F8950
S1131440988D26E02C831A83098397FF02C080E0DD
S113145090E801979E838D83AE01455E5F4F698D51
S11314607A8DCE0101960E94690A4D815E8157FDF5
S11314700AC02F813885421753070CF49A01F801EA
S1131480E20FF31F10822E96E4E00C943A0DAEE0C6
S1131490B0E0EDE4FAE00C941E0D0D891E8986E09F
S11314A08C831A8309838FEF9FE79E838D83AE011C
S11314B0475E5F4F6F89788DCE0101960E94690A5D
S11314C0EF81F885E00FF11F10822E96E4E00C9472
S11314D03A0DABE0B0E0EFE6FAE00C94100D6C01CD
S11314E07B018A01FC0117821682838181FFCCC1B2
S11314F0CE0101963C01F6019381F70193FD85919C
S113150093FF81917F01882309F4BAC1853239F4AC
S113151093FD859193FF81917F01853229F4B60172
S113152090E00E94600CE7CF912C212C312CFFE13C
S1131530F315D8F08B3279F038F4803279F08332B5
S1131540A1F4232D20611DC08D3261F0803369F434
S1131550232D216016C0832D8260382EE32DE46094
S11315603E2E2AC0F32DF8601DC037FC2DC020ED9F
S1131570280F2A3040F08E32B9F436FC81C1232D75
S11315802064322E19C036FE06C08AE0989E200DD3
S11315901124922E11C0EAE02E9E200D1124222E39
S11315A0F32DF0623F2E08C08C3621F4832D806821
S11315B0382E02C0883641F4F70193FD859193FFDC
S11315C081917F018111B3CF982F9F7D95549330E2
S11315D028F40C5F1F4F9FE399830DC0833631F0CD
S11315E0833771F0833509F059C021C0F801808137
S11315F089830E5F1F4F88248394912C530113C059
S11316002801F2E04F0E511CF801A080B18036FE93
S113161003C0692D70E002C06FEF7FEFC5010E9427
S1131620550C4C018201F32DFF773F2E16C0280183
S113163022E0420E511CF801A080B18036FE03C0A6
S1131640692D70E002C06FEF7FEFC5010E944A0C64
S11316504C01F32DF0683F2E820133FC1BC0822D18
S113166090E088169906B0F4B60180E290E00E94FA
S1131670600C2A94F4CFF50137FC859137FE8191F3
S11316805F01B60190E00E94600C21102A9421E0D1
S1131690821A91088114910471F7E8C0843611F01C
S11316A0893641F5F80137FE07C060817181828176
S11316B093810C5F1F4F08C060817181072E000C5D
S11316C0880B990B0E5F1F4FF32DFF763F2E97FF6C
S11316D009C090958095709561957F4F8F4F9F4F6E
S11316E0F0683F2E2AE030E0A3010E949C0C882E73
S11316F0861845C0853731F4232D2F7EB22E2AE07B
S113170030E025C0932D997FB92E8F36C1F018F49F
S1131710883579F0B5C0803719F0883721F0B0C02A
S1131720E92FE061BE2EB4FE0DC0FB2DF460BF2E88
S113173009C034FE0AC0292F2660B22E06C028E054
S113174030E005C020E130E002C020E132E0F801E1
S1131750B7FE07C060817181828193810C5F1F4F46
S113176006C06081718180E090E00E5F1F4FA3018D
S11317700E949C0C882E8618FB2DFF773F2E36FE88
S11317800DC0232D2E7FA22E891458F434FE0BC0D5
S113179032FC09C0832D8E7EA82E05C0B82CA32C44
S11317A003C0B82C01C0B92CA4FE0FC0FE01E80D83
S11317B0F11D8081803321F49A2D997EA92E09C0D0
S11317C0A2FE06C0B394B39404C08A2D867809F0AF
S11317D0B394A3FC11C0A0FE06C0B21488F4280C74
S11317E0922C9B180EC0B21460F4B60180E290E013
S11317F00E94600CB394F7CFB21418F42B1802C0F3
S1131800982C212CA4FE10C0B60180E390E00E9425
S1131810600CA2FE17C0A1FC03C088E790E002C0E0
S113182088E590E0B6010CC08A2D867859F0A1FEB7
S113183002C08BE201C080E2A7FC8DE2B60190E019
S11318400E94600C891438F4B60180E390E00E9491
S1131850600C9A94F7CF8A94F301E80DF11D80810E
S1131860B60190E00E94600C8110F5CF222009F4AB
S113187042CEB60180E290E00E94600C2A94F6CF3A
S1131880F6018681978102C08FEF9FEF2B96E2E1EC
S11318900C942C0DFC010590615070400110D8F798
S11318A0809590958E0F9F1F0895FC0161507040A4
S11318B001900110D8F7809590958E0F9F1F089581
S11318C00F931F93CF93DF93FB01238121FD03C06B
S11318D08FEF9FEF2CC022FF16C0468157812481D1
S11318E035814217530744F4A081B1819D012F5FD4
S11318F03F4F318320838C93268137812F5F3F4F65
S11319003783268314C08B01EC01FB010084F1852D
S1131910E02D0995892BE1F6D80116968D919C91BD
S11319201797019617969C938E931697CE01DF9185
S1131930CF911F910F910895FA01AA27283051F1F0
S1131940203181F1E8946F936E7F6E5F7F4F8F4FEC
S11319509F4FAF4FB1E03ED0B4E03CD0670F781F4B
S1131960891F9A1FA11D680F791F8A1F911DA11D30
S11319706A0F711D811D911DA11D20D009F4689469
S11319803F912AE0269F11243019305D3193DEF611
S1131990CF010895462F4770405D4193B3E00FD0C7
S11319A0C9F7F6CF462F4F70405D4A3318F0495DB2
S11319B031FD4052419302D0A9F7EACFB4E0A69595
S11319C09795879577956795BA95C9F700976105B7
S11319D0710508959B01AC010A2E0694579547950D
S11319E037952795BA95C9F7620F731F841F951F02
S11319F0A01D0895F999FECF92BD81BDF89A99274B
S1131A0080B50895262FF999FECF1FBA92BD81BDE6
S1131A1020BD0FB6F894FA9AF99A0FBE019608956C
S1131A202F923F924F925F926F927F928F929F92EA
S1131A30AF92BF92CF92DF92EF92FF920F931F93D8
S1131A40CF93DF93CDB7DEB7CA1BDB0B0FB6F89489
S1131A50DEBF0FBECDBF09942A88398848885F84C9
S1131A606E847D848C849B84AA84B984C884DF803A
S1131A70EE80FD800C811B81AA81B981CE0FD11D1E
S1131A800FB6F894DEBF0FBECDBFED010895F894F4
S1051A90FFCF82
S1131A92040120202020202020202020202020207B
S1131AA220202020202000566F6C756D653A203C62
S1131AB241444A3E202020004C696768743A202041
S1131AC23C41444A3E202020004D6F6E69746F727F
S1131AD220413A203C41444A3E004D6F6E69746F86
S1131AE27220423A203C41444A3E00536D61727472
S1131AF220576F726B62656E63682B002020205240
S1131B0265763A2056322E302020202000436F6E14
S1131B12666967757261626C652049522000426190
S1131B2273656420576F726B62656E63682000612F
S1131B326464726573733A2000253034580025308A
S1131B423258006E5F636F6D6D616E643A200056A9
S1131B526F6C756D653A2025642020202020004C8E
S1131B62696768743A20256420202020004D6F6E36
S1131B7269746F7220413A204F66662020004D6FCF
S1131B826E69746F7220413A204F6E202020004DFE
S1131B926F6E69746F7220423A204F66662020008D
S1131BA24D6F6E69746F7220423A204F6E2020206E
S1131BB2004C696768743A204F6666202020202012
S1131BC220004C696768743A2046756C6C202020AA
S1131BD2202000566F6C756D653A204D75746564EE
S1131BE220202000507265737320746865204C6550
S1131BF266742020004D6F6E69746F72205377698A
S1131C027463682020004B65792E2E2E202020201C
S1131C122020202020200050726573732074686590
S1131C2220526967687420004D6F6E69746F722068
S1131C324B65792E2E2E202000507265737320740A
S1131C426865204C69676874200053776974636817
S1131C52204B65792E2E2E2020200050726573733E
S1131C6220746865204D7574652020005072657378
S1131C72732074686520506F776572200050726516
S1131C8273732074686520566F6C756D65005570AA
S1131C92204B65792E2E2E20202020202020004447
S1131CA26F776E204B65792E2E2E20202020200067
S1131CB246617374205570204B65792E2E2E202098
S1131CC2004661737420446F776E204B65792E2E23
S1131CD22E20200052656D6F746520697320526551
S1131CE2616479210050726573732074686520629F
S1131CF27574746F6E00616761696E20746F207011
S1131D02726F6365656400746F2049522070616963
S1131D1272696E6720202000696E20582073656303
S10D1D226F6E64732020202000007F
S9030000FC
