S01700004763634170706C69636174696F6E312E737265635B
S11300000C943F000C945C000C945C000C945C0019
S11300100C945C000C9470010C945C000C945C00D7
S11300200C945C000C945C000C945C000C945C00DC
S11300300C945C000C9462010C945C000C945C00C5
S11300400C945C000C9458010C945C000C945C00BF
S11300500C945C000C945C000C945C000C945C00AC
S11300600C945C000C945C002D084008530866084E
S11300707A088E08A208B608CA08DE08F208112415
S11300801FBECFEFD8E0DEBFCDBF13E0A0E0B1E0EC
S1130090E4E5F9E102C005900D92AA37B107D9F75A
S11300A023E0AAE7B3E001C01D92AC39B207E1F73F
S11300B00E944C090C94A80C0C940000579A389A8E
S11300C0399A3A9A209A219A08955F9888230CF4D1
S11300D05F9A409886FD409A419885FD419A4298DE
S11300E084FD429A289A8AEB8A95F1F700C02898F1
S11300F08AEB8A95F1F700C00895CF93C82F299A07
S113010028980E9465008C2F8295807F0E9465004C
S1130110CF9108950F931F93CF93DF9300D0CDB762
S1130120DEB78C011A821982E981FA81E80FF91F7E
S113013080818823C9F0E981FA81E00FF11F808171
S11301400E947D0089819A8101969A8389838FE335
S113015091E00197F1F700C00000E981FA81E00F16
S1130160F11F80818111E7CF0F900F90DF91CF9124
S11301701F910F910895CF93C82F299828980E9412
S113018065008C2F8295807F0E946500CF91089531
S11301902FEF80E792E0215080409040E1F700C0CB
S11301A000002998289880E30E9465008FE39CE969
S11301B00197F1F700C0000080E30E94650087E525
S11301C092E00197F1F700C0000080E30E9465000F
S11301D087E592E00197F1F700C0000088E20E94F1
S11301E0650090EF9A95F1F788E20E94BB0020EF3A
S11301F02A95F1F788E00E94BB0080EF8A95F1F719
S113020081E00E94BB008FE79EE30197F1F700C0F5
S1130210000086E00E94BB0090EF9A95F1F78CE015
S11302200E94BB0020EF2A95F1F70895CF93DF9346
S1130230EC01862F80680E94BB00CE010E948A00D8
S1130240DF91CF910895682F82E091E00E9416011A
S1130250089580E00E94230180E40E94230180E14C
S11302600E94230180E50E9423010895CF93C82FA3
S1130270862F8068840F0E94BB008C2F0E947D0013
S1130280CF910895E8E6F0E0808184608083EDE614
S1130290F0E08081886080830895E8E6F0E0808162
S11302A08B7F8083EDE6F0E08081877F80830895F3
S11302B01F920F920FB60F9211240F900FBE0F9042
S11302C01F9018951F920F920FB60F92112410923F
S11302D08003109281000F900FBE0F901F9018950D
S11302E01F920F920FB60F9211242F933F934F93A7
S11302F05F936F937F938F939F93AF93BF93EF938A
S1130300FF93CF93DF9300D0CDB7DEB78091800306
S1130310882341F0E4E8F0E0808191819A83898325
S11303201182108280918003823061F128F4882345
S113033049F08130A1F0C2C08330B9F1843009F4AE
S113034047C0BCC0109285001092840082E0809364
S1130350810081E08093800310928E03AFC0898175
S11303609A818D31954228F489819A81843391420E
S113037028F41092800310928100A0C082E0809340
S113038080039CC089819A818938934128F48981AA
S11303909A81803A9F4028F4109280031092810041
S11303A08DC083E08093800389C089819A818D3BCD
S11303B0924028F489819A818039914028F41092DE
S11303C08100109280037AC084E08093800376C019
S11303D089819A818930974028F489819A8180396A
S11303E0914028F4109281001092800367C08981A3
S11303F09A81893E934040F120918E034091850378
S11304005091860360918703709188038FE190E097
S1130410821B910921E030E0F90102C0EE0FFF1FB9
S11304208A95E2F7CF01092E000CAA0BBB0B842B93
S1130430952BA62BB72B8093850390938603A093CB
S11304408703B093880328C020918E0340918503CD
S11304505091860360918703709188038FE190E047
S1130460821B910921E030E002C0220F331F8A95DC
S1130470E2F7C90180959095092E000CAA0BBB0BDD
S113048084239523A623B72380938503909386031F
S1130490A0938703B093880380918E038F5F80932A
S11304A08E0380918E03803230F081E0809381034B
S11304B00E944D0103C083E0809380030F900F904E
S11304C0DF91CF91FF91EF91BF91AF919F918F9168
S11304D07F916F915F914F913F912F910F900FBE3C
S11304E00F901F9018951092800010928100109226
S11304F085001092840081E080936F000E94420185
S11305000895882329F081E080937F035A9A0895FF
S113051010927F035A980895882329F081E08093EC
S11305207E035C9A089510927E035C98089587B1C7
S1130530886387B9459A449A439A08958AB1846135
S11305408AB908954498459887EC90E00197F1F7AB
S113055000C00000459A87EC90E00197F1F700C0D5
S113056000000895449A459887EC90E00197F1F7CC
S113057000C00000459A87EC90E00197F1F700C0B5
S1130580000008958EBD0DB407FEFDCF6EBD0DB401
S113059007FEFDCF2A9A2A9808958CE284B92A98F6
S11305A080E58CBD81E08DBD8FEC97E00197F1F77C
S11305B000C000000895CF93C82F682F81E10E94E6
S11305C0C2026C2F82E10E94C202CF910895CF93A0
S11305D043988FE19EE40197F1F700C00000CFEF4C
S11305E00E94B202C150E1F7C7E10E94A202C150C9
S11305F0E1F710927D0310927A03CF910895CF937F
S1130600439880917A03882341F0C0E00E94B202AB
S1130610CF5F80917A03C817C8F310927D031092BC
S11306207A03CF910895CF9343988FE19EE4019785
S1130630F1F700C00000C0917A03C53028F40E948D
S1130640A202CF5FC530D9F785E080937A0381E0B9
S113065080937D03CF9108958230A9F0843019F0FE
S11306608130C1F408C0269A2E9A2F985D9884E0B0
S11306708093000108952E98279A2F9A5D9881E01F
S11306808093000108952E982F98559A5D9A82E0E0
S1130690809300010895269A279A559A84E00E942F
S11306A02C032FEF89E698E1215080409040E1F738
S11306B000C0000081E00E942C032FEF89E698E13E
S11306C0215080409040E1F700C0000008958091DF
S11306D08103882309F441C010928103109280039E
S11306E0109281008091850390918603A0918703E5
S11306F0B0918803CD01AA27BB27909383038093ED
S113070082038091850390918603A0918703B09121
S11307108803892F9A2FAB2FBB2780938403809162
S1130720850390918603A0918703B09188038093F9
S11307308F030E94420182E00E942C032FEF80E786
S113074092E0215080409040E1F700C0000081E039
S11307500E942C0380918F03089580E008958AB14C
S113076081648AB908950E94290160E087E191E0DB
S11307700E94160160E488E291E00E94160160E1A3
S113078089E391E00E94160160E58AE491E00E9409
S11307901601089560E08BE591E00E94160160E483
S11307A08CE691E00E94160160E18DE791E00E94E1
S11307B0160160E58EE891E00E94160108955E9AA4
S11307C00E94C8000E94E7020E94CA032FEF8DE333
S11307D099E4215080409040E1F700C000000E945D
S11307E0B303089581E0809301010E94810281E0B6
S11307F00E948C020E94130380917B030E94DB02FF
S113080081E00E942C030E94DF0308950E94AF033D
S11308100E944B0381E00E942C030E9497020E94D5
S113082073020E945A090E949E020E94CD020E94F5
S11308305E000E94DF03789408955E9808951092F4
S1130840010180E00E94810280E00E948C020E94EB
S1130850FF0280E00E94DB0284E00E942C030E94DD
S11308601D0408950F931F93CF93DF93CDB7DEB785
S113087061970FB6F894DEBF0FBECDBF1982809189
S11308808103882309F466C31092810310928003C4
S1130890109281008091850390918603A091870333
S11308A0B0918803CD01AA27BB279093830380933B
S11308B082038091850390918603A0918703B09170
S11308C08803892F9A2FAB2FBB27809384038091B1
S11308D0850390918603A0918703B0918803809348
S11308E08F0380910101811106C080918F03909143
S11308F0950398132DC380918F03909198039813B7
S11309005FC080917B038230A0F480917B0380934D
S11309107B0384E00E942C032FEF80E792E02150B8
S113092080409040E1F700C0000081E00E942C0369
S113093014C080917B03825080937B0382E00E94E9
S11309402C032FEF80E792E0215080409040E1F7A4
S113095000C0000081E00E942C0360917B0381E1D0
S11309600E94C20260917B0382E10E94C20280E085
S11309700E94230180917B0324E6829FC0011124FD
S113098068EC70E00E946C09698389811F928F93DF
S11309908FE991E09F938F931F9280E18F938E0153
S11309A00E5F1F4F1F930F930E949A0960E0C801C6
S11309B00E9416010FB6F894DEBF0FBECDBFC8C2A9
S11309C080918F039091970398135EC080917B036D
S11309D0893C98F088EC80937B0384E00E942C038C
S11309E09FEF20E782E0915020408040E1F700C073
S11309F0000081E00E942C0314C080917B038E5F71
S1130A0080937B0382E00E942C039FEF20E782E027
S1130A10915020408040E1F700C0000081E00E9436
S1130A202C0360917B0381E10E94C20260917B03ED
S1130A3082E10E94C20280E00E94230180917B0334
S1130A4024E6829FC001112468EC70E00E946C09C6
S1130A50698389811F928F938FE991E09F938F938C
S1130A601F9280E18F938E010E5F1F4F1F930F9390
S1130A700E949A0960E0C8010E9416010FB6F8941A
S1130A80DEBF0FBECDBF64C280918F0390919003EF
S1130A9098135FC080917B03893CA0F080917B0315
S1130AA080937B0384E00E942C039FEF20E782E085
S1130AB0915020408040E1F700C0000081E00E9496
S1130AC02C0314C080917B03805F80937B0382E0BE
S1130AD00E942C039FEF20E782E091502040804049
S1130AE0E1F700C0000081E00E942C0360917B03C9
S1130AF081E10E94C20260917B0382E10E94C202F2
S1130B0080E00E94230180917B0324E6829FC00140
S1130B10112468EC70E00E946C09698389811F923A
S1130B208F938FE991E09F938F931F9280E18F932E
S1130B308E010E5F1F4F1F930F930E949A0960E06E
S1130B40C8010E9416010FB6F894DEBF0FBECDBFD8
S1130B50FFC180918F0390919B0398135FC0809194
S1130B607B038031A0F480917B0380937B0384E03A
S1130B700E942C039FEF20E782E0915020408040A8
S1130B80E1F700C0000081E00E942C0314C08091B2
S1130B907B03805180937B0382E00E942C039FEFB0
S1130BA020E782E0915020408040E1F700C000003F
S1130BB081E00E942C0360917B0381E10E94C202C8
S1130BC060917B0382E10E94C20280E00E942301C3
S1130BD080917B0324E6829FC001112468EC70E0BD
S1130BE00E946C09698389811F928F938FE991E038
S1130BF09F938F931F9280E18F938E010E5F1F4FFF
S1130C001F930F930E949A0960E0C8010E94160185
S1130C100FB6F894DEBF0FBECDBF9AC180918F038B
S1130C2090919903981356C080917A038530D0F43B
S1130C300E94A20280917A038F5F80937A0381E0FD
S1130C4080937D0382E00E942C039FEF20E782E0E3
S1130C50915020408040E1F700C0000081E00E94F4
S1130C602C030FC084E00E942C039FEF20E782E056
S1130C70915020408040E1F700C0000081E00E94D4
S1130C802C0380E40E94230180917A0324E6829F4E
S1130C90C001112465E070E00E946C0969838981B8
S1130CA01F928F938FEA91E09F938F931F9280E11D
S1130CB08F938E010E5F1F4F1F930F930E949A090B
S1130CC060E4C8010E9416010FB6F894DEBF0FBE9F
S1130CD0CDBF3EC180918F0390919A03981356C063
S1130CE080917A038823D1F081E080937D030E9470
S1130CF0B20280917A03815080937A0382E00E9449
S1130D002C039FEF20E782E0915020408040E1F7E0
S1130D1000C0000081E00E942C030FC084E00E9408
S1130D202C039FEF20E782E0915020408040E1F7C0
S1130D3000C0000081E00E942C0380E40E94230193
S1130D4080917A0324E6829FC001112465E070E05B
S1130D500E946C09698389811F928F938FEA91E0C5
S1130D609F938F931F9280E18F938E010E5F1F4F8D
S1130D701F930F930E949A0960E4C8010E94160110
S1130D800FB6F894DEBF0FBECDBFE2C080918F03D3
S1130D9090919103981325C080917F03882349F093
S1130DA080E00E94810260E18DEB91E00E941601D7
S1130DB008C081E00E94810260E18EEC91E00E9413
S1130DC0160182E00E942C039FEF20E782E09150FD
S1130DD020408040E1F700C0000081E00E942C0325
S1130DE0B7C080918F0390919203981325C080918E
S1130DF07E03882349F080E00E948C0260E58FED39
S1130E0091E00E94160108C081E00E948C0260E516
S1130E1080EF91E00E94160182E00E942C039FEF74
S1130E2020E782E0915020408040E1F700C00000BC
S1130E3081E00E942C038CC080918F0390919303D6
S1130E40981323C080917D03882341F00E94FF0200
S1130E5060E481E092E00E94160107C00E9413033F
S1130E6060E482E192E00E94160182E00E942C0379
S1130E709FEF20E782E0915020408040E1F700C0DE
S1130E80000081E00E942C0363C080918F03909145
S1130E90950398130AC080910101882319F00E94D8
S1130EA01F0456C00E94F20353C080918F03909197
S1130EB0940398134DC080917C03882359F080E0FB
S1130EC00E94DB0210927C0360E083E292E00E94C5
S1130ED016012FC080917B030E94DB0281E0809386
S1130EE07C0380E00E94230180917B0324E6829F9F
S1130EF0C001112468EC70E00E946C096983898147
S1130F001F928F938FE991E09F938F931F9280E1BB
S1130F108F938E010E5F1F4F1F930F930E949A09A8
S1130F2060E0C8010E9416010FB6F894DEBF0FBE40
S1130F30CDBF82E00E942C039FEF20E782E0915016
S1130F4020408040E1F700C0000081E00E942C03B3
S1130F500E94420161960FB6F894DEBF0FBECDBF6A
S1130F60DF91CF911F910F910895EF92FF920F930C
S1130F701F93CF93DF930F2EF0E9EF2EF3E0FF2EB4
S1130F80F02D0CE913E0E701CE018E199F090E94B0
S1130F905B0C8993C017D107B9F7DF91CF911F91EB
S1130FA00F91FF90EF900895489904C0489BFECF9D
S1130FB081E0089580E008959F92AF92BF92CF920E
S1130FC0DF92EF92FF920F931F93CF93DF930E94D0
S1130FD0290160E084E392E00E94160160E485E464
S1130FE092E00E94160160E186E592E00E941601FB
S1130FF00E947302C0E00F2EFAE09F2EF02D0F2EF8
S1131000F9E0AF2EF02D6894BB24B3F80F2EF7E06F
S1131010CF2EF02D0F2EF6E0DF2EF02D0F2EF5E063
S1131020EF2EF02D6894FF24F2F803E012E0D1E0F3
S11310300E94D407882329F00E941A090E94B3034E
S1131040EDC00E9467034C2F50E04B30510580F7F0
S1131050FA01EC5CFF4F0C948009882349F3682F54
S113106081E090E00E94630C60E087E692E00E94D9
S1131070160160E488E792E00E941601CD2FD8CFD4
S11310808823B1F2682F82E090E00E94630C60E054
S113109089E892E00E94160160E48AE992E00E94E5
S11310A01601C12FC5CF882319F2682F83E090E081
S11310B00E94630C60E08BEA92E00E94160160E4F7
S11310C08AE992E00E941601C02FB2CF882309F466
S11310D0AFCF682F84E090E00E94630C60E08CEB5B
S11310E092E00E94160160E48AE992E00E941601EF
S11310F0CF2D9ECF882309F49BCF682F85E090E005
S11311000E94630C60E08DEC92E00E94160160E4A2
S11311108EED92E00E941601CE2D8ACF882309F429
S113112087CF682F87E090E00E94630C60E08DEC2D
S113113092E00E94160160E48FEE92E00E94160194
S1131140CD2D76CF882309F473CF682F88E090E003
S11311500E94630C60E089E892E00E94160160E45A
S11311608EED92E00E941601CC2D62CF882309F403
S11311705FCF682F89E090E00E94630C60E089E80B
S113118092E00E94160160E48FEE92E00E94160144
S1131190CB2D4ECF882309F44BCF682F8AE090E003
S11311A00E94630C60E08DEC92E00E94160160E402
S11311B080E093E00E941601CA2D3ACF882309F4F7
S11311C037CF682F80E090E00E94630C60E08DECE4
S11311D092E00E94160160E481E193E00E9416010E
S11311E0C92D26CF882309F423CF682F8BE090E004
S11311F00E94630C0E94290160E484E293E00E944F
S113120016012FEF83ED90E3215080409040E1F7E9
S113121000C000000E94B5070E944201DF91CF91F7
S11312201F910F91FF90EF90DF90CF90BF90AF9000
S11312309F900895CF930E94290160E085E393E095
S11312400E94160160E486E493E00E94160160E1C6
S113125087E593E00E94160160E588E693E00E942A
S11312601601C5E343E060E58C2F0E9436012FEFA1
S113127089E698E1215080409040E1F700C00000E9
S11312800E94D40781110E94DC07C150C03351F77A
S11312900E94B303CF9108950E94060453980E94BC
S11312A0B5070E9432040E94D4078823D1F30E9418
S11312B01A09F7CF519A1092C50083E38093C400B2
S11312C0E1ECF0E0808188608083808180618083AC
S11312D086E08093C200089597FB072E16F40094CD
S11312E007D077FD09D00E94860907FC05D03EF49B
S11312F0909581959F4F0895709561957F4F0895BE
S1131300EE0FFF1F0590F491E02D0994AA1BBB1B5F
S113131051E107C0AA1FBB1FA617B70710F0A61BF1
S1131320B70B881F991F5A95A9F780959095BC0112
S1131330CD010895AEE0B0E0E0EAF9E00C947F0C52
S11313400D891E898F89988D26E02C831A83098341
S113135097FF02C080E090E801979E838D83AE01E1
S1131360455E5F4F698D7A8DCE0101960E94CA0950
S11313704D815E8157FD0AC02F813885421753077E
S11313800CF49A01F801E20FF31F10822E96E4E0A8
S11313900C949B0CABE0B0E0E0EDF9E00C94710C24
S11313A06C017B018A01FC0117821682838181FF13
S11313B0CCC1CE0101963C01F6019381F70193FD66
S11313C0859193FF81917F01882309F4BAC1853205
S11313D039F493FD859193FF81917F01853229F43E
S11313E0B60190E00E94C10BE7CF912C212C312C47
S11313F0FFE1F315D8F08B3279F038F4803279F0CC
S11314008332A1F4232D20611DC08D3261F080331D
S113141069F4232D216016C0832D8260382EE32DBC
S1131420E4603E2E2AC0F32DF8601DC037FC2DC0A9
S113143020ED280F2A3040F08E32B9F436FC81C1F9
S1131440232D2064322E19C036FE06C08AE0989EF1
S1131450200D1124922E11C0EAE02E9E200D11249D
S1131460222EF32DF0623F2E08C08C3621F4832DFA
S11314708068382E02C0883641F4F70193FD8591C7
S113148093FF81917F018111B3CF982F9F7D955454
S1131490933028F40C5F1F4F9FE399830DC083366C
S11314A031F0833771F0833509F059C021C0F80158
S11314B0808189830E5F1F4F88248394912C53016C
S11314C013C02801F2E04F0E511CF801A080B18036
S11314D036FE03C0692D70E002C06FEF7FEFC501D7
S11314E00E94B60B4C018201F32DFF773F2E16C0EC
S11314F0280122E0420E511CF801A080B18036FE82
S113150003C0692D70E002C06FEF7FEFC5010E9438
S1131510AB0B4C01F32DF0683F2E820133FC1BC052
S1131520822D90E088169906B0F4B60180E290E02E
S11315300E94C10B2A94F4CFF50137FC859137FE44
S113154081915F01B60190E00E94C10B21102A94A1
S113155021E0821A91088114910471F7E8C084365D
S113156011F0893641F5F80137FE07C060817181B9
S1131570828193810C5F1F4F08C060817181072EA7
S1131580000C880B990B0E5F1F4FF32DFF763F2E37
S113159097FF09C090958095709561957F4F8F4F07
S11315A09F4FF0683F2E2AE030E0A3010E94FD0B1C
S11315B0882E861845C0853731F4232D2F7EB22E10
S11315C02AE030E025C0932D997FB92E8F36C1F0E3
S11315D018F4883579F0B5C0803719F0883721F0D0
S11315E0B0C0E92FE061BE2EB4FE0DC0FB2DF46047
S11315F0BF2E09C034FE0AC0292F2660B22E06C0B1
S113160028E030E005C020E130E002C020E132E013
S1131610F801B7FE07C060817181828193810C5FFC
S11316201F4F06C06081718180E090E00E5F1F4F04
S1131630A3010E94FD0B882E8618FB2DFF773F2EF9
S113164036FE0DC0232D2E7FA22E891458F434FEAD
S11316500BC032FC09C0832D8E7EA82E05C0B82C89
S1131660A32C03C0B82C01C0B92CA4FE0FC0FE01EA
S1131670E80DF11D8081803321F49A2D997EA92EE5
S113168009C0A2FE06C0B394B39404C08A2D867820
S113169009F0B394A3FC11C0A0FE06C0B21488F4F0
S11316A0280C922C9B180EC0B21460F4B60180E290
S11316B090E00E94C10BB394F7CFB21418F42B1826
S11316C002C0982C212CA4FE10C0B60180E390E047
S11316D00E94C10BA2FE17C0A1FC03C088E790E0E2
S11316E002C088E590E0B6010CC08A2D867859F0D6
S11316F0A1FE02C08BE201C080E2A7FC8DE2B6012C
S113170090E00E94C10B891438F4B60180E390E0A4
S11317100E94C10B9A94F7CF8A94F301E80DF11D4E
S11317208081B60190E00E94C10B8110F5CF222088
S113173009F442CEB60180E290E00E94C10B2A94E3
S1131740F6CFF6018681978102C08FEF9FEF2B962B
S1131750E2E10C948D0CFC01059061507040011085
S1131760D8F7809590958E0F9F1F0895FC016150C6
S1131770704001900110D8F7809590958E0F9F1FAF
S113178008950F931F93CF93DF93FB01238121FDD2
S113179003C08FEF9FEF2CC022FF16C046815781F4
S11317A0248135814217530744F4A081B1819D01FE
S11317B02F5F3F4F318320838C93268137812F5FA6
S11317C03F4F3783268314C08B01EC01FB01008457
S11317D0F185E02D0995892BE1F6D80116968D91B6
S11317E09C911797019617969C938E931697CE010A
S11317F0DF91CF911F910F910895FA01AA27283004
S113180051F1203181F1E8946F936E7F6E5F7F4FC9
S11318108F4F9F4FAF4FB1E03ED0B4E03CD0670F45
S1131820781F891F9A1FA11D680F791F8A1F911D98
S1131830A11D6A0F711D811D911DA11D20D009F4E8
S113184068943F912AE0269F11243019305D31932A
S1131850DEF6CF010895462F4770405D4193B3E013
S11318600FD0C9F7F6CF462F4F70405D4A3318F0BA
S1131870495D31FD4052419302D0A9F7EACFB4E06B
S1131880A6959795879577956795BA95C9F7009723
S11318906105710508959B01AC010A2E06945795C4
S11318A0479537952795BA95C9F7620F731F841F1B
S11318B0951FA01D0895F999FECF92BD81BDF89A98
S11318C0992780B50895262FF999FECF1FBA92BDA6
S11318D081BD20BD0FB6F894FA9AF99A0FBE01960D
S11318E008952F923F924F925F926F927F928F92C0
S11318F09F92AF92BF92CF92DF92EF92FF920F939B
S11319001F93CF93DF93CDB7DEB7CA1BDB0B0FB6A4
S1131910F894DEBF0FBECDBF09942A883988488861
S11319205F846E847D848C849B84AA84B984C884F7
S1131930DF80EE80FD800C811B81AA81B981CE0FEE
S1131940D11D0FB6F894DEBF0FBECDBFED010895D3
S1071950F894FFCF35
S113195404012020202020202020202020202020BA
S113196420202020202000566F6C756D653A203CA1
S113197441444A3E202020004C696768743A202080
S11319843C41444A3E20202000202020204D545233
S113199420413A203C41444A3E00202020204D541A
S11319A45220423A203C41444A3E00536D617274D1
S11319B420576F726B62656E63682B00202020527F
S11319C465763A2056322E302020202000436F6E54
S11319D4666967757261626C6520495220004261D0
S11319E473656420576F726B62656E63682000567A
S11319F46F6C756D653A2025642020202020004CEE
S1131A04696768743A20256420202020002020205F
S1131A14204D545220413A204F6666202000202055
S1131A2420204D545220413A204F6E202020002083
S1131A342020204D545220423A204F666620200034
S1131A44202020204D545220423A204F6E20202042
S1131A54004C696768743A204F6666202020202071
S1131A6420004C696768743A2046756C6C20202009
S1131A74202000566F6C756D653A204D757465644D
S1131A8420202000507265737320746865204C65AF
S1131A9466742020004D6F6E69746F7220537769E9
S1131AA47463682020004B65792E2E2E202020207C
S1131AB420202020202000507265737320746865F0
S1131AC420526967687420004D6F6E69746F7220C8
S1131AD44B65792E2E2E202000507265737320746A
S1131AE46865204C69676874200053776974636877
S1131AF4204B65792E2E2E2020200050726573739E
S1131B0420746865204D75746520200050726573D7
S1131B14732074686520506F776572200050726575
S1131B2473732074686520566F6C756D6500557009
S1131B34204B65792E2E2E202020202020200044A6
S1131B446F776E204B65792E2E2E202020202000C6
S1131B5446617374205570204B65792E2E2E2020F7
S1131B64004661737420446F776E204B65792E2E82
S1131B742E20200052656D6F7465206973205265B0
S1131B8461647921005072657373207468652062FE
S1131B947574746F6E00616761696E20746F207070
S1131BA4726F6365656400746F20495220706169C3
S1131BB472696E6720202000696E20582073656363
S10D1BC46F6E6473202020200000DF
S9030000FC
